{
  "_format": "hh-sol-artifact-1",
  "contractName": "MyEpicNFT",
  "sourceName": "contracts/MyEpicNFT.sol",
  "abi": [
    {
      "inputs": [],
      "stateMutability": "nonpayable",
      "type": "constructor"
    },
    {
      "anonymous": false,
      "inputs": [
        {
          "indexed": true,
          "internalType": "address",
          "name": "owner",
          "type": "address"
        },
        {
          "indexed": true,
          "internalType": "address",
          "name": "approved",
          "type": "address"
        },
        {
          "indexed": true,
          "internalType": "uint256",
          "name": "tokenId",
          "type": "uint256"
        }
      ],
      "name": "Approval",
      "type": "event"
    },
    {
      "anonymous": false,
      "inputs": [
        {
          "indexed": true,
          "internalType": "address",
          "name": "owner",
          "type": "address"
        },
        {
          "indexed": true,
          "internalType": "address",
          "name": "operator",
          "type": "address"
        },
        {
          "indexed": false,
          "internalType": "bool",
          "name": "approved",
          "type": "bool"
        }
      ],
      "name": "ApprovalForAll",
      "type": "event"
    },
    {
      "anonymous": false,
      "inputs": [
        {
          "indexed": false,
          "internalType": "address",
          "name": "sender",
          "type": "address"
        },
        {
          "indexed": false,
          "internalType": "uint256",
          "name": "tokenId",
          "type": "uint256"
        }
      ],
      "name": "NewEpicNFTMinted",
      "type": "event"
    },
    {
      "anonymous": false,
      "inputs": [
        {
          "indexed": true,
          "internalType": "address",
          "name": "from",
          "type": "address"
        },
        {
          "indexed": true,
          "internalType": "address",
          "name": "to",
          "type": "address"
        },
        {
          "indexed": true,
          "internalType": "uint256",
          "name": "tokenId",
          "type": "uint256"
        }
      ],
      "name": "Transfer",
      "type": "event"
    },
    {
      "inputs": [
        {
          "internalType": "address",
          "name": "to",
          "type": "address"
        },
        {
          "internalType": "uint256",
          "name": "tokenId",
          "type": "uint256"
        }
      ],
      "name": "approve",
      "outputs": [],
      "stateMutability": "nonpayable",
      "type": "function"
    },
    {
      "inputs": [
        {
          "internalType": "address",
          "name": "owner",
          "type": "address"
        }
      ],
      "name": "balanceOf",
      "outputs": [
        {
          "internalType": "uint256",
          "name": "",
          "type": "uint256"
        }
      ],
      "stateMutability": "view",
      "type": "function"
    },
    {
      "inputs": [
        {
          "internalType": "uint256",
          "name": "tokenId",
          "type": "uint256"
        }
      ],
      "name": "getApproved",
      "outputs": [
        {
          "internalType": "address",
          "name": "",
          "type": "address"
        }
      ],
      "stateMutability": "view",
      "type": "function"
    },
    {
      "inputs": [
        {
          "internalType": "address",
          "name": "owner",
          "type": "address"
        },
        {
          "internalType": "address",
          "name": "operator",
          "type": "address"
        }
      ],
      "name": "isApprovedForAll",
      "outputs": [
        {
          "internalType": "bool",
          "name": "",
          "type": "bool"
        }
      ],
      "stateMutability": "view",
      "type": "function"
    },
    {
      "inputs": [],
      "name": "makeAnEpicNFT",
      "outputs": [],
      "stateMutability": "nonpayable",
      "type": "function"
    },
    {
      "inputs": [],
      "name": "name",
      "outputs": [
        {
          "internalType": "string",
          "name": "",
          "type": "string"
        }
      ],
      "stateMutability": "view",
      "type": "function"
    },
    {
      "inputs": [
        {
          "internalType": "uint256",
          "name": "tokenId",
          "type": "uint256"
        }
      ],
      "name": "ownerOf",
      "outputs": [
        {
          "internalType": "address",
          "name": "",
          "type": "address"
        }
      ],
      "stateMutability": "view",
      "type": "function"
    },
    {
      "inputs": [
        {
          "internalType": "uint256",
          "name": "tokenId",
          "type": "uint256"
        }
      ],
      "name": "pickRandomColor",
      "outputs": [
        {
          "internalType": "string",
          "name": "",
          "type": "string"
        }
      ],
      "stateMutability": "view",
      "type": "function"
    },
    {
      "inputs": [
        {
          "internalType": "uint256",
          "name": "tokenId",
          "type": "uint256"
        }
      ],
      "name": "pickRandomFirstWord",
      "outputs": [
        {
          "internalType": "string",
          "name": "",
          "type": "string"
        }
      ],
      "stateMutability": "view",
      "type": "function"
    },
    {
      "inputs": [
        {
          "internalType": "uint256",
          "name": "tokenId",
          "type": "uint256"
        }
      ],
      "name": "pickRandomSecondWord",
      "outputs": [
        {
          "internalType": "string",
          "name": "",
          "type": "string"
        }
      ],
      "stateMutability": "view",
      "type": "function"
    },
    {
      "inputs": [
        {
          "internalType": "uint256",
          "name": "tokenId",
          "type": "uint256"
        }
      ],
      "name": "pickRandomThirdWord",
      "outputs": [
        {
          "internalType": "string",
          "name": "",
          "type": "string"
        }
      ],
      "stateMutability": "view",
      "type": "function"
    },
    {
      "inputs": [
        {
          "internalType": "address",
          "name": "from",
          "type": "address"
        },
        {
          "internalType": "address",
          "name": "to",
          "type": "address"
        },
        {
          "internalType": "uint256",
          "name": "tokenId",
          "type": "uint256"
        }
      ],
      "name": "safeTransferFrom",
      "outputs": [],
      "stateMutability": "nonpayable",
      "type": "function"
    },
    {
      "inputs": [
        {
          "internalType": "address",
          "name": "from",
          "type": "address"
        },
        {
          "internalType": "address",
          "name": "to",
          "type": "address"
        },
        {
          "internalType": "uint256",
          "name": "tokenId",
          "type": "uint256"
        },
        {
          "internalType": "bytes",
          "name": "_data",
          "type": "bytes"
        }
      ],
      "name": "safeTransferFrom",
      "outputs": [],
      "stateMutability": "nonpayable",
      "type": "function"
    },
    {
      "inputs": [
        {
          "internalType": "address",
          "name": "operator",
          "type": "address"
        },
        {
          "internalType": "bool",
          "name": "approved",
          "type": "bool"
        }
      ],
      "name": "setApprovalForAll",
      "outputs": [],
      "stateMutability": "nonpayable",
      "type": "function"
    },
    {
      "inputs": [
        {
          "internalType": "bytes4",
          "name": "interfaceId",
          "type": "bytes4"
        }
      ],
      "name": "supportsInterface",
      "outputs": [
        {
          "internalType": "bool",
          "name": "",
          "type": "bool"
        }
      ],
      "stateMutability": "view",
      "type": "function"
    },
    {
      "inputs": [],
      "name": "symbol",
      "outputs": [
        {
          "internalType": "string",
          "name": "",
          "type": "string"
        }
      ],
      "stateMutability": "view",
      "type": "function"
    },
    {
      "inputs": [
        {
          "internalType": "uint256",
          "name": "tokenId",
          "type": "uint256"
        }
      ],
      "name": "tokenURI",
      "outputs": [
        {
          "internalType": "string",
          "name": "",
          "type": "string"
        }
      ],
      "stateMutability": "view",
      "type": "function"
    },
    {
      "inputs": [
        {
          "internalType": "address",
          "name": "from",
          "type": "address"
        },
        {
          "internalType": "address",
          "name": "to",
          "type": "address"
        },
        {
          "internalType": "uint256",
          "name": "tokenId",
          "type": "uint256"
        }
      ],
      "name": "transferFrom",
      "outputs": [],
      "stateMutability": "nonpayable",
      "type": "function"
    }
  ],
  "bytecode": "0x608060405260405180610100016040528060d3815260200162004b4c60d39139600890805190602001906200003692919062000a7d565b5060405180608001604052806056815260200162004c1f60569139600990805190602001906200006892919062000a7d565b506040518061012001604052806040518060400160405280600881526020017f466f756e64696e6700000000000000000000000000000000000000000000000081525081526020016040518060400160405280600681526020017f41747461636b000000000000000000000000000000000000000000000000000081525081526020016040518060400160405280600781526020017f41726d6f7265640000000000000000000000000000000000000000000000000081525081526020016040518060400160405280600581526020017f426561737400000000000000000000000000000000000000000000000000000081525081526020016040518060400160405280600981526020017f57617248616d6d6572000000000000000000000000000000000000000000000081525081526020016040518060400160405280600881526020017f436f6c6f7373757300000000000000000000000000000000000000000000000081525081526020016040518060400160405280600381526020017f4a6177000000000000000000000000000000000000000000000000000000000081525081526020016040518060400160405280600681526020017f46656d616c65000000000000000000000000000000000000000000000000000081525081526020016040518060400160405280600481526020017f4361727400000000000000000000000000000000000000000000000000000000815250815250600a9060096200029892919062000b0e565b506040518061012001604052806040518060400160405280600581526020017f50697a7a6100000000000000000000000000000000000000000000000000000081525081526020016040518060400160405280600581526020017f53616c616400000000000000000000000000000000000000000000000000000081525081526020016040518060400160405280600981526020017f4d696c6b7368616b65000000000000000000000000000000000000000000000081525081526020016040518060400160405280600781526020017f43757063616b650000000000000000000000000000000000000000000000000081525081526020016040518060400160405280600581526020017f437572727900000000000000000000000000000000000000000000000000000081525081526020016040518060400160405280600881526020017f53616e647769636800000000000000000000000000000000000000000000000081525081526020016040518060400160405280600781526020017f436869636b656e0000000000000000000000000000000000000000000000000081525081526020016040518060400160405280600581526020017f537573686900000000000000000000000000000000000000000000000000000081525081526020016040518060400160405280600781526020017f53617368696d6900000000000000000000000000000000000000000000000000815250815250600b906009620004c892919062000b0e565b506040518061014001604052806040518060400160405280600481526020017f4572656e0000000000000000000000000000000000000000000000000000000081525081526020016040518060400160405280600681526020017f4d696b617361000000000000000000000000000000000000000000000000000081525081526020016040518060400160405280600581526020017f41726d696e00000000000000000000000000000000000000000000000000000081525081526020016040518060400160405280600481526020017f4c6576690000000000000000000000000000000000000000000000000000000081525081526020016040518060400160405280600481526020017f5a656b650000000000000000000000000000000000000000000000000000000081525081526020016040518060400160405280600681526020017f5265696e6572000000000000000000000000000000000000000000000000000081525081526020016040518060400160405280600581526020017f416e6e696500000000000000000000000000000000000000000000000000000081525081526020016040518060400160405280600581526020017f536173686100000000000000000000000000000000000000000000000000000081525081526020016040518060400160405280600581526020017f46616c636f00000000000000000000000000000000000000000000000000000081525081526020016040518060400160405280600481526020017f4761626900000000000000000000000000000000000000000000000000000000815250815250600c90600a6200073392919062000b75565b506040518060c001604052806040518060400160405280600381526020017f726564000000000000000000000000000000000000000000000000000000000081525081526020016040518060400160405280600781526020017f233038433241380000000000000000000000000000000000000000000000000081525081526020016040518060400160405280600581526020017f626c61636b00000000000000000000000000000000000000000000000000000081525081526020016040518060400160405280600681526020017f79656c6c6f77000000000000000000000000000000000000000000000000000081525081526020016040518060400160405280600481526020017f626c75650000000000000000000000000000000000000000000000000000000081525081526020016040518060400160405280600581526020017f677265656e000000000000000000000000000000000000000000000000000000815250815250600d906006620008b192919062000bdc565b50348015620008bf57600080fd5b506040518060400160405280600981526020017f5371756172654e465400000000000000000000000000000000000000000000008152506040518060400160405280600681526020017f535155415245000000000000000000000000000000000000000000000000000081525081600090805190602001906200094492919062000a7d565b5080600190805190602001906200095d92919062000a7d565b505050620009ab6040518060400160405280600381526020017f676d210000000000000000000000000000000000000000000000000000000000815250620009b160201b620012991760201c565b62000dfd565b62000a5181604051602401620009c8919062000d11565b6040516020818303038152906040527f41304fac000000000000000000000000000000000000000000000000000000007bffffffffffffffffffffffffffffffffffffffffffffffffffffffff19166020820180517bffffffffffffffffffffffffffffffffffffffffffffffffffffffff838183161783525050505062000a5460201b60201c565b50565b60008151905060006a636f6e736f6c652e6c6f679050602083016000808483855afa5050505050565b82805462000a8b9062000d87565b90600052602060002090601f01602090048101928262000aaf576000855562000afb565b82601f1062000aca57805160ff191683800117855562000afb565b8280016001018555821562000afb579182015b8281111562000afa57825182559160200191906001019062000add565b5b50905062000b0a919062000c43565b5090565b82805482825590600052602060002090810192821562000b62579160200282015b8281111562000b6157825182908051906020019062000b5092919062000a7d565b509160200191906001019062000b2f565b5b50905062000b71919062000c62565b5090565b82805482825590600052602060002090810192821562000bc9579160200282015b8281111562000bc857825182908051906020019062000bb792919062000a7d565b509160200191906001019062000b96565b5b50905062000bd8919062000c62565b5090565b82805482825590600052602060002090810192821562000c30579160200282015b8281111562000c2f57825182908051906020019062000c1e92919062000a7d565b509160200191906001019062000bfd565b5b50905062000c3f919062000c62565b5090565b5b8082111562000c5e57600081600090555060010162000c44565b5090565b5b8082111562000c86576000818162000c7c919062000c8a565b5060010162000c63565b5090565b50805462000c989062000d87565b6000825580601f1062000cac575062000ccd565b601f01602090049060005260206000209081019062000ccc919062000c43565b5b50565b600062000cdd8262000d35565b62000ce9818562000d40565b935062000cfb81856020860162000d51565b62000d068162000dec565b840191505092915050565b6000602082019050818103600083015262000d2d818462000cd0565b905092915050565b600081519050919050565b600082825260208201905092915050565b60005b8381101562000d7157808201518184015260208101905062000d54565b8381111562000d81576000848401525b50505050565b6000600282049050600182168062000da057607f821691505b6020821081141562000db75762000db662000dbd565b5b50919050565b7f4e487b7100000000000000000000000000000000000000000000000000000000600052602260045260246000fd5b6000601f19601f8301169050919050565b613d3f8062000e0d6000396000f3fe608060405234801561001057600080fd5b50600436106101165760003560e01c806370a08231116100a2578063b88d4fde11610071578063b88d4fde14610317578063c575757a14610333578063c87b56dd14610363578063de9d132f14610393578063e985e9c51461039d57610116565b806370a082311461027d57806395d89b41146102ad578063a22cb465146102cb578063b187301f146102e757610116565b806323b872dd116100e957806323b872dd146101b55780632de38d68146101d157806342842e0e14610201578063514dc8c61461021d5780636352211e1461024d57610116565b806301ffc9a71461011b57806306fdde031461014b578063081812fc14610169578063095ea7b314610199575b600080fd5b610135600480360381019061013091906126c5565b6103cd565b6040516101429190612e96565b60405180910390f35b6101536104af565b6040516101609190612eb1565b60405180910390f35b610183600480360381019061017e9190612717565b610541565b6040516101909190612e06565b60405180910390f35b6101b360048036038101906101ae9190612689565b6105c6565b005b6101cf60048036038101906101ca9190612583565b6106de565b005b6101eb60048036038101906101e69190612717565b61073e565b6040516101f89190612eb1565b60405180910390f35b61021b60048036038101906102169190612583565b61085c565b005b61023760048036038101906102329190612717565b61087c565b6040516102449190612eb1565b60405180910390f35b61026760048036038101906102629190612717565b61099a565b6040516102749190612e06565b60405180910390f35b6102976004803603810190610292919061251e565b610a4c565b6040516102a49190613131565b60405180910390f35b6102b5610b04565b6040516102c29190612eb1565b60405180910390f35b6102e560048036038101906102e0919061264d565b610b96565b005b61030160048036038101906102fc9190612717565b610bac565b60405161030e9190612eb1565b60405180910390f35b610331600480360381019061032c91906125d2565b610cca565b005b61034d60048036038101906103489190612717565b610d2c565b60405161035a9190612eb1565b60405180910390f35b61037d60048036038101906103789190612717565b610e4a565b60405161038a9190612eb1565b60405180910390f35b61039b610f9c565b005b6103b760048036038101906103b29190612547565b611205565b6040516103c49190612e96565b60405180910390f35b60007f80ac58cd000000000000000000000000000000000000000000000000000000007bffffffffffffffffffffffffffffffffffffffffffffffffffffffff1916827bffffffffffffffffffffffffffffffffffffffffffffffffffffffff1916148061049857507f5b5e139f000000000000000000000000000000000000000000000000000000007bffffffffffffffffffffffffffffffffffffffffffffffffffffffff1916827bffffffffffffffffffffffffffffffffffffffffffffffffffffffff1916145b806104a857506104a782611332565b5b9050919050565b6060600080546104be906133c5565b80601f01602080910402602001604051908101604052809291908181526020018280546104ea906133c5565b80156105375780601f1061050c57610100808354040283529160200191610537565b820191906000526020600020905b81548152906001019060200180831161051a57829003601f168201915b5050505050905090565b600061054c8261139c565b61058b576040517f08c379a0000000000000000000000000000000000000000000000000000000008152600401610582906130b1565b60405180910390fd5b6004600083815260200190815260200160002060009054906101000a900473ffffffffffffffffffffffffffffffffffffffff169050919050565b60006105d18261099a565b90508073ffffffffffffffffffffffffffffffffffffffff168373ffffffffffffffffffffffffffffffffffffffff161415610642576040517f08c379a0000000000000000000000000000000000000000000000000000000008152600401610639906130f1565b60405180910390fd5b8073ffffffffffffffffffffffffffffffffffffffff16610661611408565b73ffffffffffffffffffffffffffffffffffffffff161480610690575061068f8161068a611408565b611205565b5b6106cf576040517f08c379a00000000000000000000000000000000000000000000000000000000081526004016106c690612fd1565b60405180910390fd5b6106d98383611410565b505050565b6106ef6106e9611408565b826114c9565b61072e576040517f08c379a000000000000000000000000000000000000000000000000000000000815260040161072590613111565b60405180910390fd5b6107398383836115a7565b505050565b6060600061077261074e8461180e565b60405160200161075e9190612da0565b6040516020818303038152906040526119bb565b9050600a80549050816107859190613471565b9050600a81815481106107c1577f4e487b7100000000000000000000000000000000000000000000000000000000600052603260045260246000fd5b9060005260206000200180546107d6906133c5565b80601f0160208091040260200160405190810160405280929190818152602001828054610802906133c5565b801561084f5780601f106108245761010080835404028352916020019161084f565b820191906000526020600020905b81548152906001019060200180831161083257829003601f168201915b5050505050915050919050565b61087783838360405180602001604052806000815250610cca565b505050565b606060006108b061088c8461180e565b60405160200161089c9190612de4565b6040516020818303038152906040526119bb565b9050600d80549050816108c39190613471565b9050600d81815481106108ff577f4e487b7100000000000000000000000000000000000000000000000000000000600052603260045260246000fd5b906000526020600020018054610914906133c5565b80601f0160208091040260200160405190810160405280929190818152602001828054610940906133c5565b801561098d5780601f106109625761010080835404028352916020019161098d565b820191906000526020600020905b81548152906001019060200180831161097057829003601f168201915b5050505050915050919050565b6000806002600084815260200190815260200160002060009054906101000a900473ffffffffffffffffffffffffffffffffffffffff169050600073ffffffffffffffffffffffffffffffffffffffff168173ffffffffffffffffffffffffffffffffffffffff161415610a43576040517f08c379a0000000000000000000000000000000000000000000000000000000008152600401610a3a90613011565b60405180910390fd5b80915050919050565b60008073ffffffffffffffffffffffffffffffffffffffff168273ffffffffffffffffffffffffffffffffffffffff161415610abd576040517f08c379a0000000000000000000000000000000000000000000000000000000008152600401610ab490612ff1565b60405180910390fd5b600360008373ffffffffffffffffffffffffffffffffffffffff1673ffffffffffffffffffffffffffffffffffffffff168152602001908152602001600020549050919050565b606060018054610b13906133c5565b80601f0160208091040260200160405190810160405280929190818152602001828054610b3f906133c5565b8015610b8c5780601f10610b6157610100808354040283529160200191610b8c565b820191906000526020600020905b815481529060010190602001808311610b6f57829003601f168201915b5050505050905090565b610ba8610ba1611408565b83836119ee565b5050565b60606000610be0610bbc8461180e565b604051602001610bcc9190612d39565b6040516020818303038152906040526119bb565b9050600b8054905081610bf39190613471565b9050600b8181548110610c2f577f4e487b7100000000000000000000000000000000000000000000000000000000600052603260045260246000fd5b906000526020600020018054610c44906133c5565b80601f0160208091040260200160405190810160405280929190818152602001828054610c70906133c5565b8015610cbd5780601f10610c9257610100808354040283529160200191610cbd565b820191906000526020600020905b815481529060010190602001808311610ca057829003601f168201915b5050505050915050919050565b610cdb610cd5611408565b836114c9565b610d1a576040517f08c379a0000000000000000000000000000000000000000000000000000000008152600401610d1190613111565b60405180910390fd5b610d2684848484611b5b565b50505050565b60606000610d60610d3c8461180e565b604051602001610d4c9190612d17565b6040516020818303038152906040526119bb565b9050600c8054905081610d739190613471565b9050600c8181548110610daf577f4e487b7100000000000000000000000000000000000000000000000000000000600052603260045260246000fd5b906000526020600020018054610dc4906133c5565b80601f0160208091040260200160405190810160405280929190818152602001828054610df0906133c5565b8015610e3d5780601f10610e1257610100808354040283529160200191610e3d565b820191906000526020600020905b815481529060010190602001808311610e2057829003601f168201915b5050505050915050919050565b6060610e558261139c565b610e94576040517f08c379a0000000000000000000000000000000000000000000000000000000008152600401610e8b90613091565b60405180910390fd5b6000600660008481526020019081526020016000208054610eb4906133c5565b80601f0160208091040260200160405190810160405280929190818152602001828054610ee0906133c5565b8015610f2d5780601f10610f0257610100808354040283529160200191610f2d565b820191906000526020600020905b815481529060010190602001808311610f1057829003601f168201915b505050505090506000610f3e611bb7565b9050600081511415610f54578192505050610f97565b600082511115610f89578082604051602001610f71929190612c57565b60405160208183030381529060405292505050610f97565b610f9284611bce565b925050505b919050565b6000610fa86007611c75565b90506032600182610fb991906131fa565b1115610ffa576040517f08c379a0000000000000000000000000000000000000000000000000000000008152600401610ff190613051565b60405180910390fd5b60006110058261073e565b9050600061101283610bac565b9050600061101f84610d2c565b9050600083838360405160200161103893929190612c7b565b604051602081830303815290604052905060006110548661087c565b905060006008826009856040516020016110719493929190612cac565b604051602081830303815290604052905060006110b68461109184611c83565b6040516020016110a2929190612d5b565b604051602081830303815290604052611c83565b90506000816040516020016110cb9190612dc2565b604051602081830303815290604052905061111a6040518060400160405280601581526020017f0a2d2d2d2d2d2d2d2d2d2d2d2d2d2d2d2d2d2d2d2d0000000000000000000000815250611299565b6111428160405160200161112e9190612cf5565b604051602081830303815290604052611299565b6111806040518060400160405280601581526020017f2d2d2d2d2d2d2d2d2d2d2d2d2d2d2d2d2d2d2d2d0a0000000000000000000000815250611299565b61118a338a611e41565b6111948982611e5f565b61119e6007611ed3565b6111c1604051806060016040528060258152602001613ca5602591398a33611ee9565b7febb98688741ffa4c7589bf325de30cf7becb63de567842e1ccdb6cb949fdc82c338a6040516111f2929190612e6d565b60405180910390a1505050505050505050565b6000600560008473ffffffffffffffffffffffffffffffffffffffff1673ffffffffffffffffffffffffffffffffffffffff16815260200190815260200160002060008373ffffffffffffffffffffffffffffffffffffffff1673ffffffffffffffffffffffffffffffffffffffff16815260200190815260200160002060009054906101000a900460ff16905092915050565b61132f816040516024016112ad9190612eb1565b6040516020818303038152906040527f41304fac000000000000000000000000000000000000000000000000000000007bffffffffffffffffffffffffffffffffffffffffffffffffffffffff19166020820180517bffffffffffffffffffffffffffffffffffffffffffffffffffffffff8381831617835250505050611f88565b50565b60007f01ffc9a7000000000000000000000000000000000000000000000000000000007bffffffffffffffffffffffffffffffffffffffffffffffffffffffff1916827bffffffffffffffffffffffffffffffffffffffffffffffffffffffff1916149050919050565b60008073ffffffffffffffffffffffffffffffffffffffff166002600084815260200190815260200160002060009054906101000a900473ffffffffffffffffffffffffffffffffffffffff1673ffffffffffffffffffffffffffffffffffffffff1614159050919050565b600033905090565b816004600083815260200190815260200160002060006101000a81548173ffffffffffffffffffffffffffffffffffffffff021916908373ffffffffffffffffffffffffffffffffffffffff160217905550808273ffffffffffffffffffffffffffffffffffffffff166114838361099a565b73ffffffffffffffffffffffffffffffffffffffff167f8c5be1e5ebec7d5bd14f71427d1e84f3dd0314c0f7b2291e5b200ac8c7c3b92560405160405180910390a45050565b60006114d48261139c565b611513576040517f08c379a000000000000000000000000000000000000000000000000000000000815260040161150a90612fb1565b60405180910390fd5b600061151e8361099a565b90508073ffffffffffffffffffffffffffffffffffffffff168473ffffffffffffffffffffffffffffffffffffffff16148061158d57508373ffffffffffffffffffffffffffffffffffffffff1661157584610541565b73ffffffffffffffffffffffffffffffffffffffff16145b8061159e575061159d8185611205565b5b91505092915050565b8273ffffffffffffffffffffffffffffffffffffffff166115c78261099a565b73ffffffffffffffffffffffffffffffffffffffff161461161d576040517f08c379a000000000000000000000000000000000000000000000000000000000815260040161161490612f31565b60405180910390fd5b600073ffffffffffffffffffffffffffffffffffffffff168273ffffffffffffffffffffffffffffffffffffffff16141561168d576040517f08c379a000000000000000000000000000000000000000000000000000000000815260040161168490612f71565b60405180910390fd5b611698838383611fb1565b6116a3600082611410565b6001600360008573ffffffffffffffffffffffffffffffffffffffff1673ffffffffffffffffffffffffffffffffffffffff16815260200190815260200160002060008282546116f391906132db565b925050819055506001600360008473ffffffffffffffffffffffffffffffffffffffff1673ffffffffffffffffffffffffffffffffffffffff168152602001908152602001600020600082825461174a91906131fa565b92505081905550816002600083815260200190815260200160002060006101000a81548173ffffffffffffffffffffffffffffffffffffffff021916908373ffffffffffffffffffffffffffffffffffffffff160217905550808273ffffffffffffffffffffffffffffffffffffffff168473ffffffffffffffffffffffffffffffffffffffff167fddf252ad1be2c89b69c2b068fc378daa952ba7f163c4a11628f55a4df523b3ef60405160405180910390a4611809838383611fb6565b505050565b60606000821415611856576040518060400160405280600181526020017f300000000000000000000000000000000000000000000000000000000000000081525090506119b6565b600082905060005b6000821461188857808061187190613428565b915050600a826118819190613250565b915061185e565b60008167ffffffffffffffff8111156118ca577f4e487b7100000000000000000000000000000000000000000000000000000000600052604160045260246000fd5b6040519080825280601f01601f1916602001820160405280156118fc5781602001600182028036833780820191505090505b5090505b600085146119af5760018261191591906132db565b9150600a856119249190613471565b603061193091906131fa565b60f81b81838151811061196c577f4e487b7100000000000000000000000000000000000000000000000000000000600052603260045260246000fd5b60200101907effffffffffffffffffffffffffffffffffffffffffffffffffffffffffffff1916908160001a905350600a856119a89190613250565b9450611900565b8093505050505b919050565b6000816040516020016119ce9190612c40565b6040516020818303038152906040528051906020012060001c9050919050565b8173ffffffffffffffffffffffffffffffffffffffff168373ffffffffffffffffffffffffffffffffffffffff161415611a5d576040517f08c379a0000000000000000000000000000000000000000000000000000000008152600401611a5490612f91565b60405180910390fd5b80600560008573ffffffffffffffffffffffffffffffffffffffff1673ffffffffffffffffffffffffffffffffffffffff16815260200190815260200160002060008473ffffffffffffffffffffffffffffffffffffffff1673ffffffffffffffffffffffffffffffffffffffff16815260200190815260200160002060006101000a81548160ff0219169083151502179055508173ffffffffffffffffffffffffffffffffffffffff168373ffffffffffffffffffffffffffffffffffffffff167f17307eab39ab6107e8899845ad3d59bd9653f200f220920489ca2b5937696c3183604051611b4e9190612e96565b60405180910390a3505050565b611b668484846115a7565b611b7284848484611fbb565b611bb1576040517f08c379a0000000000000000000000000000000000000000000000000000000008152600401611ba890612f11565b60405180910390fd5b50505050565b606060405180602001604052806000815250905090565b6060611bd98261139c565b611c18576040517f08c379a0000000000000000000000000000000000000000000000000000000008152600401611c0f906130d1565b60405180910390fd5b6000611c22611bb7565b90506000815111611c425760405180602001604052806000815250611c6d565b80611c4c8461180e565b604051602001611c5d929190612c57565b6040516020818303038152906040525b915050919050565b600081600001549050919050565b60606000825190506000811415611cac5760405180602001604052806000815250915050611e3c565b60006003600283611cbd91906131fa565b611cc79190613250565b6004611cd39190613281565b90506000602082611ce491906131fa565b67ffffffffffffffff811115611d23577f4e487b7100000000000000000000000000000000000000000000000000000000600052604160045260246000fd5b6040519080825280601f01601f191660200182016040528015611d555781602001600182028036833780820191505090505b5090506000604051806060016040528060408152602001613cca604091399050600181016020830160005b86811015611df95760038101905062ffffff818a015116603f8160121c168401518060081b905060ff603f83600c1c1686015116810190508060081b905060ff603f8360061c1686015116810190508060081b905060ff603f831686015116810190508060e01b90508084526004840193505050611d80565b506003860660018114611e135760028114611e2357611e2e565b613d3d60f01b6002830352611e2e565b603d60f81b60018303525b508484525050819450505050505b919050565b611e5b828260405180602001604052806000815250612152565b5050565b611e688261139c565b611ea7576040517f08c379a0000000000000000000000000000000000000000000000000000000008152600401611e9e90613031565b60405180910390fd5b80600660008481526020019081526020016000209080519060200190611ece9291906123aa565b505050565b6001816000016000828254019250508190555050565b611f83838383604051602401611f0193929190612ed3565b6040516020818303038152906040527fe3849f79000000000000000000000000000000000000000000000000000000007bffffffffffffffffffffffffffffffffffffffffffffffffffffffff19166020820180517bffffffffffffffffffffffffffffffffffffffffffffffffffffffff8381831617835250505050611f88565b505050565b60008151905060006a636f6e736f6c652e6c6f679050602083016000808483855afa5050505050565b505050565b505050565b6000611fdc8473ffffffffffffffffffffffffffffffffffffffff166121ad565b15612145578373ffffffffffffffffffffffffffffffffffffffff1663150b7a02612005611408565b8786866040518563ffffffff1660e01b81526004016120279493929190612e21565b602060405180830381600087803b15801561204157600080fd5b505af192505050801561207257506040513d601f19601f8201168201806040525081019061206f91906126ee565b60015b6120f5573d80600081146120a2576040519150601f19603f3d011682016040523d82523d6000602084013e6120a7565b606091505b506000815114156120ed576040517f08c379a00000000000000000000000000000000000000000000000000000000081526004016120e490612f11565b60405180910390fd5b805181602001fd5b63150b7a0260e01b7bffffffffffffffffffffffffffffffffffffffffffffffffffffffff1916817bffffffffffffffffffffffffffffffffffffffffffffffffffffffff19161491505061214a565b600190505b949350505050565b61215c83836121d0565b6121696000848484611fbb565b6121a8576040517f08c379a000000000000000000000000000000000000000000000000000000000815260040161219f90612f11565b60405180910390fd5b505050565b6000808273ffffffffffffffffffffffffffffffffffffffff163b119050919050565b600073ffffffffffffffffffffffffffffffffffffffff168273ffffffffffffffffffffffffffffffffffffffff161415612240576040517f08c379a000000000000000000000000000000000000000000000000000000000815260040161223790613071565b60405180910390fd5b6122498161139c565b15612289576040517f08c379a000000000000000000000000000000000000000000000000000000000815260040161228090612f51565b60405180910390fd5b61229560008383611fb1565b6001600360008473ffffffffffffffffffffffffffffffffffffffff1673ffffffffffffffffffffffffffffffffffffffff16815260200190815260200160002060008282546122e591906131fa565b92505081905550816002600083815260200190815260200160002060006101000a81548173ffffffffffffffffffffffffffffffffffffffff021916908373ffffffffffffffffffffffffffffffffffffffff160217905550808273ffffffffffffffffffffffffffffffffffffffff16600073ffffffffffffffffffffffffffffffffffffffff167fddf252ad1be2c89b69c2b068fc378daa952ba7f163c4a11628f55a4df523b3ef60405160405180910390a46123a660008383611fb6565b5050565b8280546123b6906133c5565b90600052602060002090601f0160209004810192826123d8576000855561241f565b82601f106123f157805160ff191683800117855561241f565b8280016001018555821561241f579182015b8281111561241e578251825591602001919060010190612403565b5b50905061242c9190612430565b5090565b5b80821115612449576000816000905550600101612431565b5090565b600061246061245b84613171565b61314c565b90508281526020810184848401111561247857600080fd5b612483848285613383565b509392505050565b60008135905061249a81613c48565b92915050565b6000813590506124af81613c5f565b92915050565b6000813590506124c481613c76565b92915050565b6000815190506124d981613c76565b92915050565b600082601f8301126124f057600080fd5b813561250084826020860161244d565b91505092915050565b60008135905061251881613c8d565b92915050565b60006020828403121561253057600080fd5b600061253e8482850161248b565b91505092915050565b6000806040838503121561255a57600080fd5b60006125688582860161248b565b92505060206125798582860161248b565b9150509250929050565b60008060006060848603121561259857600080fd5b60006125a68682870161248b565b93505060206125b78682870161248b565b92505060406125c886828701612509565b9150509250925092565b600080600080608085870312156125e857600080fd5b60006125f68782880161248b565b94505060206126078782880161248b565b935050604061261887828801612509565b925050606085013567ffffffffffffffff81111561263557600080fd5b612641878288016124df565b91505092959194509250565b6000806040838503121561266057600080fd5b600061266e8582860161248b565b925050602061267f858286016124a0565b9150509250929050565b6000806040838503121561269c57600080fd5b60006126aa8582860161248b565b92505060206126bb85828601612509565b9150509250929050565b6000602082840312156126d757600080fd5b60006126e5848285016124b5565b91505092915050565b60006020828403121561270057600080fd5b600061270e848285016124ca565b91505092915050565b60006020828403121561272957600080fd5b600061273784828501612509565b91505092915050565b6127498161330f565b82525050565b61275881613321565b82525050565b6000612769826131b7565b61277381856131cd565b9350612783818560208601613392565b61278c8161355e565b840191505092915050565b60006127a2826131c2565b6127ac81856131de565b93506127bc818560208601613392565b6127c58161355e565b840191505092915050565b60006127db826131c2565b6127e581856131ef565b93506127f5818560208601613392565b80840191505092915050565b6000815461280e816133c5565b61281881866131ef565b94506001821660008114612833576001811461284457612877565b60ff19831686528186019350612877565b61284d856131a2565b60005b8381101561286f57815481890152600182019150602081019050612850565b838801955050505b50505092915050565b600061288d6065836131ef565b91506128988261356f565b606582019050919050565b60006128b06025836131ef565b91506128bb8261360a565b602582019050919050565b60006128d36032836131de565b91506128de82613659565b604082019050919050565b60006128f66025836131de565b9150612901826136a8565b604082019050919050565b6000612919601c836131de565b9150612924826136f7565b602082019050919050565b600061293c600a836131ef565b915061294782613720565b600a82019050919050565b600061295f6024836131de565b915061296a82613749565b604082019050919050565b60006129826019836131de565b915061298d82613798565b602082019050919050565b60006129a5600b836131ef565b91506129b0826137c1565b600b82019050919050565b60006129c8602c836131de565b91506129d3826137ea565b604082019050919050565b60006129eb600d836131ef565b91506129f682613839565b600d82019050919050565b6000612a0e6038836131de565b9150612a1982613862565b604082019050919050565b6000612a31602a836131de565b9150612a3c826138b1565b604082019050919050565b6000612a546029836131de565b9150612a5f82613900565b604082019050919050565b6000612a77602e836131de565b9150612a828261394f565b604082019050919050565b6000612a9a6002836131ef565b9150612aa58261399e565b600282019050919050565b6000612abd6012836131de565b9150612ac8826139c7565b602082019050919050565b6000612ae06020836131de565b9150612aeb826139f0565b602082019050919050565b6000612b036031836131de565b9150612b0e82613a19565b604082019050919050565b6000612b26602c836131de565b9150612b3182613a68565b604082019050919050565b6000612b49602f836131de565b9150612b5482613ab7565b604082019050919050565b6000612b6c600a836131ef565b9150612b7782613b06565b600a82019050919050565b6000612b8f6021836131de565b9150612b9a82613b2f565b604082019050919050565b6000612bb2600a836131ef565b9150612bbd82613b7e565b600a82019050919050565b6000612bd5601d836131ef565b9150612be082613ba7565b601d82019050919050565b6000612bf86031836131de565b9150612c0382613bd0565b604082019050919050565b6000612c1b6005836131ef565b9150612c2682613c1f565b600582019050919050565b612c3a81613379565b82525050565b6000612c4c82846127d0565b915081905092915050565b6000612c6382856127d0565b9150612c6f82846127d0565b91508190509392505050565b6000612c8782866127d0565b9150612c9382856127d0565b9150612c9f82846127d0565b9150819050949350505050565b6000612cb88287612801565b9150612cc482866127d0565b9150612cd08285612801565b9150612cdc82846127d0565b9150612ce7826129de565b915081905095945050505050565b6000612d00826128a3565b9150612d0c82846127d0565b915081905092915050565b6000612d228261292f565b9150612d2e82846127d0565b915081905092915050565b6000612d4482612998565b9150612d5082846127d0565b915081905092915050565b6000612d6682612b5f565b9150612d7282856127d0565b9150612d7d82612880565b9150612d8982846127d0565b9150612d9482612a8d565b91508190509392505050565b6000612dab82612ba5565b9150612db782846127d0565b915081905092915050565b6000612dcd82612bc8565b9150612dd982846127d0565b915081905092915050565b6000612def82612c0e565b9150612dfb82846127d0565b915081905092915050565b6000602082019050612e1b6000830184612740565b92915050565b6000608082019050612e366000830187612740565b612e436020830186612740565b612e506040830185612c31565b8181036060830152612e62818461275e565b905095945050505050565b6000604082019050612e826000830185612740565b612e8f6020830184612c31565b9392505050565b6000602082019050612eab600083018461274f565b92915050565b60006020820190508181036000830152612ecb8184612797565b905092915050565b60006060820190508181036000830152612eed8186612797565b9050612efc6020830185612c31565b612f096040830184612740565b949350505050565b60006020820190508181036000830152612f2a816128c6565b9050919050565b60006020820190508181036000830152612f4a816128e9565b9050919050565b60006020820190508181036000830152612f6a8161290c565b9050919050565b60006020820190508181036000830152612f8a81612952565b9050919050565b60006020820190508181036000830152612faa81612975565b9050919050565b60006020820190508181036000830152612fca816129bb565b9050919050565b60006020820190508181036000830152612fea81612a01565b9050919050565b6000602082019050818103600083015261300a81612a24565b9050919050565b6000602082019050818103600083015261302a81612a47565b9050919050565b6000602082019050818103600083015261304a81612a6a565b9050919050565b6000602082019050818103600083015261306a81612ab0565b9050919050565b6000602082019050818103600083015261308a81612ad3565b9050919050565b600060208201905081810360008301526130aa81612af6565b9050919050565b600060208201905081810360008301526130ca81612b19565b9050919050565b600060208201905081810360008301526130ea81612b3c565b9050919050565b6000602082019050818103600083015261310a81612b82565b9050919050565b6000602082019050818103600083015261312a81612beb565b9050919050565b60006020820190506131466000830184612c31565b92915050565b6000613156613167565b905061316282826133f7565b919050565b6000604051905090565b600067ffffffffffffffff82111561318c5761318b61352f565b5b6131958261355e565b9050602081019050919050565b60008190508160005260206000209050919050565b600081519050919050565b600081519050919050565b600082825260208201905092915050565b600082825260208201905092915050565b600081905092915050565b600061320582613379565b915061321083613379565b9250827fffffffffffffffffffffffffffffffffffffffffffffffffffffffffffffffff03821115613245576132446134a2565b5b828201905092915050565b600061325b82613379565b915061326683613379565b925082613276576132756134d1565b5b828204905092915050565b600061328c82613379565b915061329783613379565b9250817fffffffffffffffffffffffffffffffffffffffffffffffffffffffffffffffff04831182151516156132d0576132cf6134a2565b5b828202905092915050565b60006132e682613379565b91506132f183613379565b925082821015613304576133036134a2565b5b828203905092915050565b600061331a82613359565b9050919050565b60008115159050919050565b60007fffffffff0000000000000000000000000000000000000000000000000000000082169050919050565b600073ffffffffffffffffffffffffffffffffffffffff82169050919050565b6000819050919050565b82818337600083830152505050565b60005b838110156133b0578082015181840152602081019050613395565b838111156133bf576000848401525b50505050565b600060028204905060018216806133dd57607f821691505b602082108114156133f1576133f0613500565b5b50919050565b6134008261355e565b810181811067ffffffffffffffff8211171561341f5761341e61352f565b5b80604052505050565b600061343382613379565b91507fffffffffffffffffffffffffffffffffffffffffffffffffffffffffffffffff821415613466576134656134a2565b5b600182019050919050565b600061347c82613379565b915061348783613379565b925082613497576134966134d1565b5b828206905092915050565b7f4e487b7100000000000000000000000000000000000000000000000000000000600052601160045260246000fd5b7f4e487b7100000000000000000000000000000000000000000000000000000000600052601260045260246000fd5b7f4e487b7100000000000000000000000000000000000000000000000000000000600052602260045260246000fd5b7f4e487b7100000000000000000000000000000000000000000000000000000000600052604160045260246000fd5b6000601f19601f8301169050919050565b7f222c20226465736372697074696f6e223a20224120686967686c79206163636c60008201527f61696d656420636f6c6c656374696f6e206f662065706963206e6674732e222c60208201527f2022696d616765223a2022646174613a696d6167652f7376672b786d6c3b626160408201527f736536342c000000000000000000000000000000000000000000000000000000606082015250565b7f68747470733a2f2f6e6674707265766965772e30786465762e636f6465732f3f60008201527f636f64653d000000000000000000000000000000000000000000000000000000602082015250565b7f4552433732313a207472616e7366657220746f206e6f6e20455243373231526560008201527f63656976657220696d706c656d656e7465720000000000000000000000000000602082015250565b7f4552433732313a207472616e736665722066726f6d20696e636f72726563742060008201527f6f776e6572000000000000000000000000000000000000000000000000000000602082015250565b7f4552433732313a20746f6b656e20616c7265616479206d696e74656400000000600082015250565b7f54484952445f574f524400000000000000000000000000000000000000000000600082015250565b7f4552433732313a207472616e7366657220746f20746865207a65726f2061646460008201527f7265737300000000000000000000000000000000000000000000000000000000602082015250565b7f4552433732313a20617070726f766520746f2063616c6c657200000000000000600082015250565b7f5345434f4e445f574f5244000000000000000000000000000000000000000000600082015250565b7f4552433732313a206f70657261746f7220717565727920666f72206e6f6e657860008201527f697374656e7420746f6b656e0000000000000000000000000000000000000000602082015250565b7f3c2f746578743e3c2f7376673e00000000000000000000000000000000000000600082015250565b7f4552433732313a20617070726f76652063616c6c6572206973206e6f74206f7760008201527f6e6572206e6f7220617070726f76656420666f7220616c6c0000000000000000602082015250565b7f4552433732313a2062616c616e636520717565727920666f7220746865207a6560008201527f726f206164647265737300000000000000000000000000000000000000000000602082015250565b7f4552433732313a206f776e657220717565727920666f72206e6f6e657869737460008201527f656e7420746f6b656e0000000000000000000000000000000000000000000000602082015250565b7f45524337323155524953746f726167653a2055524920736574206f66206e6f6e60008201527f6578697374656e7420746f6b656e000000000000000000000000000000000000602082015250565b7f227d000000000000000000000000000000000000000000000000000000000000600082015250565b7f72656163686564206d617820737570706c790000000000000000000000000000600082015250565b7f4552433732313a206d696e7420746f20746865207a65726f2061646472657373600082015250565b7f45524337323155524953746f726167653a2055524920717565727920666f722060008201527f6e6f6e6578697374656e7420746f6b656e000000000000000000000000000000602082015250565b7f4552433732313a20617070726f76656420717565727920666f72206e6f6e657860008201527f697374656e7420746f6b656e0000000000000000000000000000000000000000602082015250565b7f4552433732314d657461646174613a2055524920717565727920666f72206e6f60008201527f6e6578697374656e7420746f6b656e0000000000000000000000000000000000602082015250565b7f7b226e616d65223a202200000000000000000000000000000000000000000000600082015250565b7f4552433732313a20617070726f76616c20746f2063757272656e74206f776e6560008201527f7200000000000000000000000000000000000000000000000000000000000000602082015250565b7f46495253545f574f524400000000000000000000000000000000000000000000600082015250565b7f646174613a6170706c69636174696f6e2f6a736f6e3b6261736536342c000000600082015250565b7f4552433732313a207472616e736665722063616c6c6572206973206e6f74206f60008201527f776e6572206e6f7220617070726f766564000000000000000000000000000000602082015250565b7f434f4c4f52000000000000000000000000000000000000000000000000000000600082015250565b613c518161330f565b8114613c5c57600080fd5b50565b613c6881613321565b8114613c7357600080fd5b50565b613c7f8161332d565b8114613c8a57600080fd5b50565b613c9681613379565b8114613ca157600080fd5b5056fe416e204e465420772f20494420257320686173206265656e206d696e74656420746f2025734142434445464748494a4b4c4d4e4f505152535455565758595a6162636465666768696a6b6c6d6e6f707172737475767778797a303132333435363738392b2fa2646970667358221220865a2346a1343db53fdad643e7fceab25cff3fe32c13dc9b9df3bf4be28820f264736f6c634300080100333c73766720786d6c6e733d27687474703a2f2f7777772e77332e6f72672f323030302f73766727207072657365727665417370656374526174696f3d27784d696e594d696e206d656574272076696577426f783d273020302033353020333530273e3c7374796c653e2e62617365207b2066696c6c3a2077686974653b20666f6e742d66616d696c793a2073657269663b20666f6e742d73697a653a20323470783b207d3c2f7374796c653e3c726563742077696474683d273130302527206865696768743d2731303025272066696c6c3d27272f3e3c7465787420783d273530252720793d273530252720636c6173733d27626173652720646f6d696e616e742d626173656c696e653d276d6964646c652720746578742d616e63686f723d276d6964646c65273e",
  "linkReferences": {},
  "deployedLinkReferences": {}
}